{
  "_format": "hh-sol-artifact-1",
  "contractName": "PoolAddressesProvider",
  "sourceName": "contracts/gpuAaveContracts/PoolAddressesProvider.sol",
  "abi": [
    {
      "inputs": [
        {
          "internalType": "address",
          "name": "owner",
          "type": "address"
        }
      ],
      "stateMutability": "nonpayable",
      "type": "constructor"
    },
    {
      "anonymous": false,
      "inputs": [
        {
          "indexed": true,
          "internalType": "bytes32",
          "name": "id",
          "type": "bytes32"
        },
        {
          "indexed": true,
          "internalType": "address",
          "name": "oldAddress",
          "type": "address"
        },
        {
          "indexed": true,
          "internalType": "address",
          "name": "newAddress",
          "type": "address"
        }
      ],
      "name": "AddressSet",
      "type": "event"
    },
    {
      "anonymous": false,
      "inputs": [
        {
          "indexed": true,
          "internalType": "bytes32",
          "name": "id",
          "type": "bytes32"
        },
        {
          "indexed": true,
          "internalType": "address",
          "name": "proxyAddress",
          "type": "address"
        },
        {
          "indexed": false,
          "internalType": "address",
          "name": "oldImplementationAddress",
          "type": "address"
        },
        {
          "indexed": false,
          "internalType": "address",
          "name": "newImplementationAddress",
          "type": "address"
        }
      ],
      "name": "AddressSetAsProxy",
      "type": "event"
    },
    {
      "inputs": [],
      "name": "getACLManager",
      "outputs": [
        {
          "internalType": "address",
          "name": "",
          "type": "address"
        }
      ],
      "stateMutability": "view",
      "type": "function"
    },
    {
      "inputs": [
        {
          "internalType": "bytes32",
          "name": "id",
          "type": "bytes32"
        }
      ],
      "name": "getAddress",
      "outputs": [
        {
          "internalType": "address",
          "name": "",
          "type": "address"
        }
      ],
      "stateMutability": "view",
      "type": "function"
    },
    {
      "inputs": [],
      "name": "getOwner",
      "outputs": [
        {
          "internalType": "address",
          "name": "",
          "type": "address"
        }
      ],
      "stateMutability": "view",
      "type": "function"
    },
    {
      "inputs": [],
      "name": "getPool",
      "outputs": [
        {
          "internalType": "address",
          "name": "",
          "type": "address"
        }
      ],
      "stateMutability": "view",
      "type": "function"
    },
    {
      "inputs": [],
      "name": "getPoolConfigurator",
      "outputs": [
        {
          "internalType": "address",
          "name": "",
          "type": "address"
        }
      ],
      "stateMutability": "view",
      "type": "function"
    },
    {
      "inputs": [],
      "name": "getPriceOracle",
      "outputs": [
        {
          "internalType": "address",
          "name": "",
          "type": "address"
        }
      ],
      "stateMutability": "view",
      "type": "function"
    },
    {
      "inputs": [
        {
          "internalType": "address",
          "name": "newACLManager",
          "type": "address"
        }
      ],
      "name": "setACLManager",
      "outputs": [],
      "stateMutability": "nonpayable",
      "type": "function"
    },
    {
      "inputs": [
        {
          "internalType": "bytes32",
          "name": "id",
          "type": "bytes32"
        },
        {
          "internalType": "address",
          "name": "newAddress",
          "type": "address"
        }
      ],
      "name": "setAddress",
      "outputs": [],
      "stateMutability": "nonpayable",
      "type": "function"
    },
    {
      "inputs": [
        {
          "internalType": "address",
          "name": "newPool",
          "type": "address"
        }
      ],
      "name": "setPool",
      "outputs": [],
      "stateMutability": "nonpayable",
      "type": "function"
    },
    {
      "inputs": [
        {
          "internalType": "address",
          "name": "newPoolConfigurator",
          "type": "address"
        }
      ],
      "name": "setPoolConfigurator",
      "outputs": [],
      "stateMutability": "nonpayable",
      "type": "function"
    },
    {
      "inputs": [
        {
          "internalType": "address",
          "name": "newPriceOracle",
          "type": "address"
        }
      ],
      "name": "setPriceOracle",
      "outputs": [],
      "stateMutability": "nonpayable",
      "type": "function"
    },
    {
      "inputs": [
        {
          "internalType": "address",
          "name": "newOwner",
          "type": "address"
        }
      ],
      "name": "transferOwnership",
      "outputs": [],
      "stateMutability": "nonpayable",
      "type": "function"
    }
  ],
  "bytecode": "0x6080604052348015600f57600080fd5b5060405161083a38038061083a833981016040819052602c9160a9565b6001600160a01b03811660855760405162461bcd60e51b815260206004820152601c60248201527f4f776e65722063616e6e6f74206265207a65726f206164647265737300000000604482015260640160405180910390fd5b600180546001600160a01b0319166001600160a01b039290921691909117905560d7565b60006020828403121560ba57600080fd5b81516001600160a01b038116811460d057600080fd5b9392505050565b610754806100e66000396000f3fe608060405234801561001057600080fd5b50600436106100b45760003560e01c8063893d20e811610071578063893d20e8146101f6578063ca446dd914610207578063ed301ca91461021a578063f2fde38b1461022d578063fca513a814610240578063ff7ca69e1461028857600080fd5b8063026b1d5f146100b957806321f8a721146101115780634437152a1461013a578063530e784f1461014f578063631adfca14610162578063707cd716146101af575b600080fd5b631413d3d360e21b60009081526020527f90a6717007972abdd359a4601ded8bb678f8970bb31258895ce4abd6b71ae8eb546001600160a01b03165b6040516001600160a01b03909116815260200160405180910390f35b6100f561011f366004610644565b6000908152602081905260409020546001600160a01b031690565b61014d610148366004610679565b61029b565b005b61014d61015d366004610679565b61033f565b702827a7a62fa1a7a72324a3aaa920aa27a960791b60009081526020527fa106bfbc88dc3f2baed8759b53b3cff29293aa41f17b2b6ce9753fc1b63331b1546001600160a01b03166100f5565b6a20a1a62fa6a0a720a3a2a960a91b60009081526020527f8e74bf0834bc26aa01630eb1c94baeab2ae4b7a018c966eb87f61df46fea6652546001600160a01b03166100f5565b6001546001600160a01b03166100f5565b61014d61021536600461069b565b6103e2565b61014d610228366004610679565b610458565b61014d61023b366004610679565b6104fa565b6b50524943455f4f5241434c4560a01b60009081526020527f5b6d9c8ee94c2286315b1d75c10ac421a036231ee7d51e8fa63bb940322543c1546001600160a01b03166100f5565b61014d610296366004610679565b61059c565b6001546001600160a01b031633146102ce5760405162461bcd60e51b81526004016102c5906106c7565b60405180910390fd5b631413d3d360e21b600081815260208190527f90a6717007972abdd359a4601ded8bb678f8970bb31258895ce4abd6b71ae8eb80546001600160a01b038581166001600160a01b03198316811790935560405191169391928492916000805160206106ff8339815191529190a45050565b6001546001600160a01b031633146103695760405162461bcd60e51b81526004016102c5906106c7565b6b50524943455f4f5241434c4560a01b600081815260208190527f5b6d9c8ee94c2286315b1d75c10ac421a036231ee7d51e8fa63bb940322543c180546001600160a01b038581166001600160a01b03198316811790935560405191169391928492916000805160206106ff8339815191529190a45050565b6001546001600160a01b0316331461040c5760405162461bcd60e51b81526004016102c5906106c7565b60008281526020819052604080822080546001600160a01b031981166001600160a01b038681169182179093559251911692839186916000805160206106ff83398151915291a4505050565b6001546001600160a01b031633146104825760405162461bcd60e51b81526004016102c5906106c7565b6a20a1a62fa6a0a720a3a2a960a91b600081815260208190527f8e74bf0834bc26aa01630eb1c94baeab2ae4b7a018c966eb87f61df46fea665280546001600160a01b038581166001600160a01b03198316811790935560405191169391928492916000805160206106ff8339815191529190a45050565b6001546001600160a01b031633146105245760405162461bcd60e51b81526004016102c5906106c7565b6001600160a01b03811661057a5760405162461bcd60e51b815260206004820181905260248201527f4e6577206f776e65722063616e6e6f74206265207a65726f206164647265737360448201526064016102c5565b600180546001600160a01b0319166001600160a01b0392909216919091179055565b6001546001600160a01b031633146105c65760405162461bcd60e51b81526004016102c5906106c7565b702827a7a62fa1a7a72324a3aaa920aa27a960791b600081815260208190527fa106bfbc88dc3f2baed8759b53b3cff29293aa41f17b2b6ce9753fc1b63331b180546001600160a01b038581166001600160a01b03198316811790935560405191169391928492916000805160206106ff8339815191529190a45050565b60006020828403121561065657600080fd5b5035919050565b80356001600160a01b038116811461067457600080fd5b919050565b60006020828403121561068b57600080fd5b6106948261065d565b9392505050565b600080604083850312156106ae57600080fd5b823591506106be6020840161065d565b90509250929050565b60208082526017908201527f43616c6c6572206973206e6f7420746865206f776e657200000000000000000060408201526060019056fe9ef0e8c8e52743bb38b83b17d9429141d494b8041ca6d616a6c77cebae9cd8b7a26469706673582212209803cf6c931c607341d1aede6d1947b451a31133c700e88dca4b164a614230cf64736f6c634300081c0033",
  "linkReferences": {},
  "deployedLinkReferences": {}
}