{
  "_format": "hh-sol-artifact-1",
  "contractName": "SimplePriceOracle",
  "sourceName": "contracts/gpuAaveContracts/SimplePriceOracle.sol",
  "abi": [
    {
      "inputs": [],
      "stateMutability": "nonpayable",
      "type": "constructor"
    },
    {
      "anonymous": false,
      "inputs": [
        {
          "indexed": true,
          "internalType": "address",
          "name": "asset",
          "type": "address"
        },
        {
          "indexed": false,
          "internalType": "uint256",
          "name": "price",
          "type": "uint256"
        },
        {
          "indexed": false,
          "internalType": "uint8",
          "name": "decimals",
          "type": "uint8"
        }
      ],
      "name": "AssetAdded",
      "type": "event"
    },
    {
      "anonymous": false,
      "inputs": [
        {
          "indexed": true,
          "internalType": "address",
          "name": "asset",
          "type": "address"
        },
        {
          "indexed": false,
          "internalType": "uint8",
          "name": "decimals",
          "type": "uint8"
        }
      ],
      "name": "AssetDecimalUpdated",
      "type": "event"
    },
    {
      "anonymous": false,
      "inputs": [
        {
          "indexed": true,
          "internalType": "address",
          "name": "asset",
          "type": "address"
        },
        {
          "indexed": false,
          "internalType": "uint256",
          "name": "price",
          "type": "uint256"
        }
      ],
      "name": "AssetPriceUpdated",
      "type": "event"
    },
    {
      "anonymous": false,
      "inputs": [
        {
          "indexed": true,
          "internalType": "address",
          "name": "asset",
          "type": "address"
        }
      ],
      "name": "AssetRemoved",
      "type": "event"
    },
    {
      "inputs": [
        {
          "internalType": "address",
          "name": "asset",
          "type": "address"
        },
        {
          "internalType": "uint256",
          "name": "price",
          "type": "uint256"
        },
        {
          "internalType": "uint8",
          "name": "decimals",
          "type": "uint8"
        }
      ],
      "name": "addAsset",
      "outputs": [],
      "stateMutability": "nonpayable",
      "type": "function"
    },
    {
      "inputs": [
        {
          "internalType": "address",
          "name": "asset",
          "type": "address"
        }
      ],
      "name": "getAssetConfig",
      "outputs": [
        {
          "internalType": "uint256",
          "name": "price",
          "type": "uint256"
        },
        {
          "internalType": "uint8",
          "name": "decimals",
          "type": "uint8"
        },
        {
          "internalType": "bool",
          "name": "isSupported",
          "type": "bool"
        }
      ],
      "stateMutability": "view",
      "type": "function"
    },
    {
      "inputs": [
        {
          "internalType": "address",
          "name": "asset",
          "type": "address"
        }
      ],
      "name": "getAssetDecimal",
      "outputs": [
        {
          "internalType": "uint8",
          "name": "",
          "type": "uint8"
        }
      ],
      "stateMutability": "view",
      "type": "function"
    },
    {
      "inputs": [
        {
          "internalType": "address",
          "name": "asset",
          "type": "address"
        }
      ],
      "name": "getAssetPrice",
      "outputs": [
        {
          "internalType": "uint256",
          "name": "",
          "type": "uint256"
        }
      ],
      "stateMutability": "view",
      "type": "function"
    },
    {
      "inputs": [],
      "name": "getSupportedAssets",
      "outputs": [
        {
          "internalType": "address[]",
          "name": "",
          "type": "address[]"
        }
      ],
      "stateMutability": "view",
      "type": "function"
    },
    {
      "inputs": [
        {
          "internalType": "address",
          "name": "asset",
          "type": "address"
        }
      ],
      "name": "isAssetSupported",
      "outputs": [
        {
          "internalType": "bool",
          "name": "",
          "type": "bool"
        }
      ],
      "stateMutability": "view",
      "type": "function"
    },
    {
      "inputs": [
        {
          "internalType": "address",
          "name": "asset",
          "type": "address"
        }
      ],
      "name": "removeAsset",
      "outputs": [],
      "stateMutability": "nonpayable",
      "type": "function"
    },
    {
      "inputs": [
        {
          "internalType": "address",
          "name": "asset",
          "type": "address"
        },
        {
          "internalType": "uint8",
          "name": "decimal",
          "type": "uint8"
        }
      ],
      "name": "setAssetDecimal",
      "outputs": [],
      "stateMutability": "nonpayable",
      "type": "function"
    },
    {
      "inputs": [
        {
          "internalType": "address",
          "name": "asset",
          "type": "address"
        },
        {
          "internalType": "uint256",
          "name": "price",
          "type": "uint256"
        }
      ],
      "name": "setAssetPrice",
      "outputs": [],
      "stateMutability": "nonpayable",
      "type": "function"
    },
    {
      "inputs": [
        {
          "internalType": "address",
          "name": "newOwner",
          "type": "address"
        }
      ],
      "name": "transferOwnership",
      "outputs": [],
      "stateMutability": "nonpayable",
      "type": "function"
    }
  ],
  "bytecode": "0x6080604052348015600f57600080fd5b50600280546001600160a01b03191633179055610ab6806100316000396000f3fe608060405234801561001057600080fd5b506004361061009e5760003560e01c8063b3596f0711610066578063b3596f071461019f578063ba75b466146101c0578063c8785614146101e5578063e5406dbf146101f8578063f2fde38b1461020d57600080fd5b806336e5f0b0146100a3578063464b4158146100b85780634a5e42b11461010157806351323f72146101145780636ec3ab6714610127575b600080fd5b6100b66100b13660046108c2565b610220565b005b6100ec6100c63660046108fe565b6001600160a01b0316600090815260208190526040902060010154610100900460ff1690565b60405190151581526020015b60405180910390f35b6100b661010f3660046108fe565b61039a565b6100b6610122366004610920565b61055b565b6101806101353660046108fe565b6001600160a01b0316600090815260208181526040918290208251606081018452815480825260019092015460ff808216948301859052610100909104161515930183905292909190565b6040805193845260ff90921660208401521515908201526060016100f8565b6101b26101ad3660046108fe565b610617565b6040519081526020016100f8565b6101d36101ce3660046108fe565b610673565b60405160ff90911681526020016100f8565b6100b66101f336600461094a565b6106d5565b610200610799565b6040516100f8919061097d565b6100b661021b3660046108fe565b6107fb565b6002546001600160a01b031633146102535760405162461bcd60e51b815260040161024a906109c9565b60405180910390fd5b6001600160a01b038316600090815260208190526040902060010154610100900460ff16156102c45760405162461bcd60e51b815260206004820152601760248201527f417373657420616c726561647920737570706f72746564000000000000000000604482015260640161024a565b6040805160608101825283815260ff838116602080840182815260018587018181526001600160a01b038b1660008181528086528981209851895593519783018054925115156101000261ffff19909316989097169790971717909455835480850185559390527fb10e2d527612073b26eecdfd717e6a320cf44b4afac2b0732d9fcbe2b7fa0cf690920180546001600160a01b0319168417905583518681529182015290917fb6953575613458e981e3a35643bbfc02df7840fc2091993d5a6300b0005e1672910160405180910390a2505050565b6002546001600160a01b031633146103c45760405162461bcd60e51b815260040161024a906109c9565b6001600160a01b038116600090815260208190526040902060010154610100900460ff166104045760405162461bcd60e51b815260040161024a90610a00565b6001600160a01b0381166000908152602081905260408120600101805461ff00191690555b60015481101561052357816001600160a01b03166001828154811061045057610450610a2d565b6000918252602090912001546001600160a01b03160361051b5760018054610479908290610a43565b8154811061048957610489610a2d565b600091825260209091200154600180546001600160a01b0390921691839081106104b5576104b5610a2d565b9060005260206000200160006101000a8154816001600160a01b0302191690836001600160a01b0316021790555060018054806104f4576104f4610a6a565b600082815260209020810160001990810180546001600160a01b0319169055019055610523565b600101610429565b506040516001600160a01b038216907f37803e2125c48ee96c38ddf04e826daf335b0e1603579040fd275aba6d06b6fc90600090a250565b6002546001600160a01b031633146105855760405162461bcd60e51b815260040161024a906109c9565b6001600160a01b038216600090815260208190526040902060010154610100900460ff166105c55760405162461bcd60e51b815260040161024a90610a00565b6001600160a01b0382166000818152602081815260409182902084905590518381527f041c2475f26c9b591c9f1c0705a40a15906fbf6d247cdf00adac71dee71750c491015b60405180910390a25050565b6001600160a01b038116600090815260208190526040812060010154610100900460ff166106575760405162461bcd60e51b815260040161024a90610a00565b506001600160a01b031660009081526020819052604090205490565b6001600160a01b038116600090815260208190526040812060010154610100900460ff166106b35760405162461bcd60e51b815260040161024a90610a00565b506001600160a01b031660009081526020819052604090206001015460ff1690565b6002546001600160a01b031633146106ff5760405162461bcd60e51b815260040161024a906109c9565b6001600160a01b038216600090815260208190526040902060010154610100900460ff1661073f5760405162461bcd60e51b815260040161024a90610a00565b6001600160a01b03821660008181526020818152604091829020600101805460ff191660ff861690811790915591519182527fb4a2e9a0b936b0df1a5b7d81eec6d1118279da8b1ff0d6038cad856b551f3083910161060b565b606060018054806020026020016040519081016040528092919081815260200182805480156107f157602002820191906000526020600020905b81546001600160a01b031681526001909101906020018083116107d3575b5050505050905090565b6002546001600160a01b031633146108255760405162461bcd60e51b815260040161024a906109c9565b6001600160a01b0381166108735760405162461bcd60e51b8152602060048201526015602482015274496e76616c6964206f776e6572206164647265737360581b604482015260640161024a565b600280546001600160a01b0319166001600160a01b0392909216919091179055565b80356001600160a01b03811681146108ac57600080fd5b919050565b803560ff811681146108ac57600080fd5b6000806000606084860312156108d757600080fd5b6108e084610895565b9250602084013591506108f5604085016108b1565b90509250925092565b60006020828403121561091057600080fd5b61091982610895565b9392505050565b6000806040838503121561093357600080fd5b61093c83610895565b946020939093013593505050565b6000806040838503121561095d57600080fd5b61096683610895565b9150610974602084016108b1565b90509250929050565b602080825282518282018190526000918401906040840190835b818110156109be5783516001600160a01b0316835260209384019390920191600101610997565b509095945050505050565b6020808252601c908201527f4f6e6c79206f776e65722063616e207570646174652070726963657300000000604082015260600190565b602080825260139082015272105cdcd95d081b9bdd081cdd5c1c1bdc9d1959606a1b604082015260600190565b634e487b7160e01b600052603260045260246000fd5b81810381811115610a6457634e487b7160e01b600052601160045260246000fd5b92915050565b634e487b7160e01b600052603160045260246000fdfea26469706673582212200bd02893b519b54638f7671a845fab95b5ef81a204acc66b83c2712f26b1ce6964736f6c634300081c0033",
  "linkReferences": {},
  "deployedLinkReferences": {}
}