{"contracts/gpuAaveContracts/PoolAddressesProvider.sol":{"PoolAddressesProvider":{"abi":[{"inputs":[{"internalType":"address","name":"owner","type":"address"}],"stateMutability":"nonpayable","type":"constructor"},{"anonymous":false,"inputs":[{"indexed":true,"internalType":"bytes32","name":"id","type":"bytes32"},{"indexed":true,"internalType":"address","name":"oldAddress","type":"address"},{"indexed":true,"internalType":"address","name":"newAddress","type":"address"}],"name":"AddressSet","type":"event"},{"anonymous":false,"inputs":[{"indexed":true,"internalType":"bytes32","name":"id","type":"bytes32"},{"indexed":true,"internalType":"address","name":"proxyAddress","type":"address"},{"indexed":false,"internalType":"address","name":"oldImplementationAddress","type":"address"},{"indexed":false,"internalType":"address","name":"newImplementationAddress","type":"address"}],"name":"AddressSetAsProxy","type":"event"},{"inputs":[],"name":"getACLManager","outputs":[{"internalType":"address","name":"","type":"address"}],"stateMutability":"view","type":"function"},{"inputs":[{"internalType":"bytes32","name":"id","type":"bytes32"}],"name":"getAddress","outputs":[{"internalType":"address","name":"","type":"address"}],"stateMutability":"view","type":"function"},{"inputs":[],"name":"getOwner","outputs":[{"internalType":"address","name":"","type":"address"}],"stateMutability":"view","type":"function"},{"inputs":[],"name":"getPool","outputs":[{"internalType":"address","name":"","type":"address"}],"stateMutability":"view","type":"function"},{"inputs":[],"name":"getPoolConfigurator","outputs":[{"internalType":"address","name":"","type":"address"}],"stateMutability":"view","type":"function"},{"inputs":[],"name":"getPriceOracle","outputs":[{"internalType":"address","name":"","type":"address"}],"stateMutability":"view","type":"function"},{"inputs":[{"internalType":"address","name":"newACLManager","type":"address"}],"name":"setACLManager","outputs":[],"stateMutability":"nonpayable","type":"function"},{"inputs":[{"internalType":"bytes32","name":"id","type":"bytes32"},{"internalType":"address","name":"newAddress","type":"address"}],"name":"setAddress","outputs":[],"stateMutability":"nonpayable","type":"function"},{"inputs":[{"internalType":"address","name":"newPool","type":"address"}],"name":"setPool","outputs":[],"stateMutability":"nonpayable","type":"function"},{"inputs":[{"internalType":"address","name":"newPoolConfigurator","type":"address"}],"name":"setPoolConfigurator","outputs":[],"stateMutability":"nonpayable","type":"function"},{"inputs":[{"internalType":"address","name":"newPriceOracle","type":"address"}],"name":"setPriceOracle","outputs":[],"stateMutability":"nonpayable","type":"function"},{"inputs":[{"internalType":"address","name":"newOwner","type":"address"}],"name":"transferOwnership","outputs":[],"stateMutability":"nonpayable","type":"function"}],"evm":{"bytecode":{"linkReferences":{},"object":"6080604052348015600f57600080fd5b5060405161083a38038061083a833981016040819052602c9160a9565b6001600160a01b03811660855760405162461bcd60e51b815260206004820152601c60248201527f4f776e65722063616e6e6f74206265207a65726f206164647265737300000000604482015260640160405180910390fd5b600180546001600160a01b0319166001600160a01b039290921691909117905560d7565b60006020828403121560ba57600080fd5b81516001600160a01b038116811460d057600080fd5b9392505050565b610754806100e66000396000f3fe608060405234801561001057600080fd5b50600436106100b45760003560e01c8063893d20e811610071578063893d20e8146101f6578063ca446dd914610207578063ed301ca91461021a578063f2fde38b1461022d578063fca513a814610240578063ff7ca69e1461028857600080fd5b8063026b1d5f146100b957806321f8a721146101115780634437152a1461013a578063530e784f1461014f578063631adfca14610162578063707cd716146101af575b600080fd5b631413d3d360e21b60009081526020527f90a6717007972abdd359a4601ded8bb678f8970bb31258895ce4abd6b71ae8eb546001600160a01b03165b6040516001600160a01b03909116815260200160405180910390f35b6100f561011f366004610644565b6000908152602081905260409020546001600160a01b031690565b61014d610148366004610679565b61029b565b005b61014d61015d366004610679565b61033f565b702827a7a62fa1a7a72324a3aaa920aa27a960791b60009081526020527fa106bfbc88dc3f2baed8759b53b3cff29293aa41f17b2b6ce9753fc1b63331b1546001600160a01b03166100f5565b6a20a1a62fa6a0a720a3a2a960a91b60009081526020527f8e74bf0834bc26aa01630eb1c94baeab2ae4b7a018c966eb87f61df46fea6652546001600160a01b03166100f5565b6001546001600160a01b03166100f5565b61014d61021536600461069b565b6103e2565b61014d610228366004610679565b610458565b61014d61023b366004610679565b6104fa565b6b50524943455f4f5241434c4560a01b60009081526020527f5b6d9c8ee94c2286315b1d75c10ac421a036231ee7d51e8fa63bb940322543c1546001600160a01b03166100f5565b61014d610296366004610679565b61059c565b6001546001600160a01b031633146102ce5760405162461bcd60e51b81526004016102c5906106c7565b60405180910390fd5b631413d3d360e21b600081815260208190527f90a6717007972abdd359a4601ded8bb678f8970bb31258895ce4abd6b71ae8eb80546001600160a01b038581166001600160a01b03198316811790935560405191169391928492916000805160206106ff8339815191529190a45050565b6001546001600160a01b031633146103695760405162461bcd60e51b81526004016102c5906106c7565b6b50524943455f4f5241434c4560a01b600081815260208190527f5b6d9c8ee94c2286315b1d75c10ac421a036231ee7d51e8fa63bb940322543c180546001600160a01b038581166001600160a01b03198316811790935560405191169391928492916000805160206106ff8339815191529190a45050565b6001546001600160a01b0316331461040c5760405162461bcd60e51b81526004016102c5906106c7565b60008281526020819052604080822080546001600160a01b031981166001600160a01b038681169182179093559251911692839186916000805160206106ff83398151915291a4505050565b6001546001600160a01b031633146104825760405162461bcd60e51b81526004016102c5906106c7565b6a20a1a62fa6a0a720a3a2a960a91b600081815260208190527f8e74bf0834bc26aa01630eb1c94baeab2ae4b7a018c966eb87f61df46fea665280546001600160a01b038581166001600160a01b03198316811790935560405191169391928492916000805160206106ff8339815191529190a45050565b6001546001600160a01b031633146105245760405162461bcd60e51b81526004016102c5906106c7565b6001600160a01b03811661057a5760405162461bcd60e51b815260206004820181905260248201527f4e6577206f776e65722063616e6e6f74206265207a65726f206164647265737360448201526064016102c5565b600180546001600160a01b0319166001600160a01b0392909216919091179055565b6001546001600160a01b031633146105c65760405162461bcd60e51b81526004016102c5906106c7565b702827a7a62fa1a7a72324a3aaa920aa27a960791b600081815260208190527fa106bfbc88dc3f2baed8759b53b3cff29293aa41f17b2b6ce9753fc1b63331b180546001600160a01b038581166001600160a01b03198316811790935560405191169391928492916000805160206106ff8339815191529190a45050565b60006020828403121561065657600080fd5b5035919050565b80356001600160a01b038116811461067457600080fd5b919050565b60006020828403121561068b57600080fd5b6106948261065d565b9392505050565b600080604083850312156106ae57600080fd5b823591506106be6020840161065d565b90509250929050565b60208082526017908201527f43616c6c6572206973206e6f7420746865206f776e657200000000000000000060408201526060019056fe9ef0e8c8e52743bb38b83b17d9429141d494b8041ca6d616a6c77cebae9cd8b7a26469706673582212209803cf6c931c607341d1aede6d1947b451a31133c700e88dca4b164a614230cf64736f6c634300081c0033","opcodes":"PUSH1 0x80 PUSH1 0x40 MSTORE CALLVALUE DUP1 ISZERO PUSH1 0xF JUMPI PUSH1 0x0 DUP1 REVERT JUMPDEST POP PUSH1 0x40 MLOAD PUSH2 0x83A CODESIZE SUB DUP1 PUSH2 0x83A DUP4 CODECOPY DUP2 ADD PUSH1 0x40 DUP2 SWAP1 MSTORE PUSH1 0x2C SWAP2 PUSH1 0xA9 JUMP JUMPDEST PUSH1 0x1 PUSH1 0x1 PUSH1 0xA0 SHL SUB DUP2 AND PUSH1 0x85 JUMPI PUSH1 0x40 MLOAD PUSH3 0x461BCD PUSH1 0xE5 SHL DUP2 MSTORE PUSH1 0x20 PUSH1 0x4 DUP3 ADD MSTORE PUSH1 0x1C PUSH1 0x24 DUP3 ADD MSTORE PUSH32 0x4F776E65722063616E6E6F74206265207A65726F206164647265737300000000 PUSH1 0x44 DUP3 ADD MSTORE PUSH1 0x64 ADD PUSH1 0x40 MLOAD DUP1 SWAP2 SUB SWAP1 REVERT JUMPDEST PUSH1 0x1 DUP1 SLOAD PUSH1 0x1 PUSH1 0x1 PUSH1 0xA0 SHL SUB NOT AND PUSH1 0x1 PUSH1 0x1 PUSH1 0xA0 SHL SUB SWAP3 SWAP1 SWAP3 AND SWAP2 SWAP1 SWAP2 OR SWAP1 SSTORE PUSH1 0xD7 JUMP JUMPDEST PUSH1 0x0 PUSH1 0x20 DUP3 DUP5 SUB SLT ISZERO PUSH1 0xBA JUMPI PUSH1 0x0 DUP1 REVERT JUMPDEST DUP2 MLOAD PUSH1 0x1 PUSH1 0x1 PUSH1 0xA0 SHL SUB DUP2 AND DUP2 EQ PUSH1 0xD0 JUMPI PUSH1 0x0 DUP1 REVERT JUMPDEST SWAP4 SWAP3 POP POP POP JUMP JUMPDEST PUSH2 0x754 DUP1 PUSH2 0xE6 PUSH1 0x0 CODECOPY PUSH1 0x0 RETURN INVALID PUSH1 0x80 PUSH1 0x40 MSTORE CALLVALUE DUP1 ISZERO PUSH2 0x10 JUMPI PUSH1 0x0 DUP1 REVERT JUMPDEST POP PUSH1 0x4 CALLDATASIZE LT PUSH2 0xB4 JUMPI PUSH1 0x0 CALLDATALOAD PUSH1 0xE0 SHR DUP1 PUSH4 0x893D20E8 GT PUSH2 0x71 JUMPI DUP1 PUSH4 0x893D20E8 EQ PUSH2 0x1F6 JUMPI DUP1 PUSH4 0xCA446DD9 EQ PUSH2 0x207 JUMPI DUP1 PUSH4 0xED301CA9 EQ PUSH2 0x21A JUMPI DUP1 PUSH4 0xF2FDE38B EQ PUSH2 0x22D JUMPI DUP1 PUSH4 0xFCA513A8 EQ PUSH2 0x240 JUMPI DUP1 PUSH4 0xFF7CA69E EQ PUSH2 0x288 JUMPI PUSH1 0x0 DUP1 REVERT JUMPDEST DUP1 PUSH4 0x26B1D5F EQ PUSH2 0xB9 JUMPI DUP1 PUSH4 0x21F8A721 EQ PUSH2 0x111 JUMPI DUP1 PUSH4 0x4437152A EQ PUSH2 0x13A JUMPI DUP1 PUSH4 0x530E784F EQ PUSH2 0x14F JUMPI DUP1 PUSH4 0x631ADFCA EQ PUSH2 0x162 JUMPI DUP1 PUSH4 0x707CD716 EQ PUSH2 0x1AF JUMPI JUMPDEST PUSH1 0x0 DUP1 REVERT JUMPDEST PUSH4 0x1413D3D3 PUSH1 0xE2 SHL PUSH1 0x0 SWAP1 DUP2 MSTORE PUSH1 0x20 MSTORE PUSH32 0x90A6717007972ABDD359A4601DED8BB678F8970BB31258895CE4ABD6B71AE8EB SLOAD PUSH1 0x1 PUSH1 0x1 PUSH1 0xA0 SHL SUB AND JUMPDEST PUSH1 0x40 MLOAD PUSH1 0x1 PUSH1 0x1 PUSH1 0xA0 SHL SUB SWAP1 SWAP2 AND DUP2 MSTORE PUSH1 0x20 ADD PUSH1 0x40 MLOAD DUP1 SWAP2 SUB SWAP1 RETURN JUMPDEST PUSH2 0xF5 PUSH2 0x11F CALLDATASIZE PUSH1 0x4 PUSH2 0x644 JUMP JUMPDEST PUSH1 0x0 SWAP1 DUP2 MSTORE PUSH1 0x20 DUP2 SWAP1 MSTORE PUSH1 0x40 SWAP1 KECCAK256 SLOAD PUSH1 0x1 PUSH1 0x1 PUSH1 0xA0 SHL SUB AND SWAP1 JUMP JUMPDEST PUSH2 0x14D PUSH2 0x148 CALLDATASIZE PUSH1 0x4 PUSH2 0x679 JUMP JUMPDEST PUSH2 0x29B JUMP JUMPDEST STOP JUMPDEST PUSH2 0x14D PUSH2 0x15D CALLDATASIZE PUSH1 0x4 PUSH2 0x679 JUMP JUMPDEST PUSH2 0x33F JUMP JUMPDEST PUSH17 0x2827A7A62FA1A7A72324A3AAA920AA27A9 PUSH1 0x79 SHL PUSH1 0x0 SWAP1 DUP2 MSTORE PUSH1 0x20 MSTORE PUSH32 0xA106BFBC88DC3F2BAED8759B53B3CFF29293AA41F17B2B6CE9753FC1B63331B1 SLOAD PUSH1 0x1 PUSH1 0x1 PUSH1 0xA0 SHL SUB AND PUSH2 0xF5 JUMP JUMPDEST PUSH11 0x20A1A62FA6A0A720A3A2A9 PUSH1 0xA9 SHL PUSH1 0x0 SWAP1 DUP2 MSTORE PUSH1 0x20 MSTORE PUSH32 0x8E74BF0834BC26AA01630EB1C94BAEAB2AE4B7A018C966EB87F61DF46FEA6652 SLOAD PUSH1 0x1 PUSH1 0x1 PUSH1 0xA0 SHL SUB AND PUSH2 0xF5 JUMP JUMPDEST PUSH1 0x1 SLOAD PUSH1 0x1 PUSH1 0x1 PUSH1 0xA0 SHL SUB AND PUSH2 0xF5 JUMP JUMPDEST PUSH2 0x14D PUSH2 0x215 CALLDATASIZE PUSH1 0x4 PUSH2 0x69B JUMP JUMPDEST PUSH2 0x3E2 JUMP JUMPDEST PUSH2 0x14D PUSH2 0x228 CALLDATASIZE PUSH1 0x4 PUSH2 0x679 JUMP JUMPDEST PUSH2 0x458 JUMP JUMPDEST PUSH2 0x14D PUSH2 0x23B CALLDATASIZE PUSH1 0x4 PUSH2 0x679 JUMP JUMPDEST PUSH2 0x4FA JUMP JUMPDEST PUSH12 0x50524943455F4F5241434C45 PUSH1 0xA0 SHL PUSH1 0x0 SWAP1 DUP2 MSTORE PUSH1 0x20 MSTORE PUSH32 0x5B6D9C8EE94C2286315B1D75C10AC421A036231EE7D51E8FA63BB940322543C1 SLOAD PUSH1 0x1 PUSH1 0x1 PUSH1 0xA0 SHL SUB AND PUSH2 0xF5 JUMP JUMPDEST PUSH2 0x14D PUSH2 0x296 CALLDATASIZE PUSH1 0x4 PUSH2 0x679 JUMP JUMPDEST PUSH2 0x59C JUMP JUMPDEST PUSH1 0x1 SLOAD PUSH1 0x1 PUSH1 0x1 PUSH1 0xA0 SHL SUB AND CALLER EQ PUSH2 0x2CE JUMPI PUSH1 0x40 MLOAD PUSH3 0x461BCD PUSH1 0xE5 SHL DUP2 MSTORE PUSH1 0x4 ADD PUSH2 0x2C5 SWAP1 PUSH2 0x6C7 JUMP JUMPDEST PUSH1 0x40 MLOAD DUP1 SWAP2 SUB SWAP1 REVERT JUMPDEST PUSH4 0x1413D3D3 PUSH1 0xE2 SHL PUSH1 0x0 DUP2 DUP2 MSTORE PUSH1 0x20 DUP2 SWAP1 MSTORE PUSH32 0x90A6717007972ABDD359A4601DED8BB678F8970BB31258895CE4ABD6B71AE8EB DUP1 SLOAD PUSH1 0x1 PUSH1 0x1 PUSH1 0xA0 SHL SUB DUP6 DUP2 AND PUSH1 0x1 PUSH1 0x1 PUSH1 0xA0 SHL SUB NOT DUP4 AND DUP2 OR SWAP1 SWAP4 SSTORE PUSH1 0x40 MLOAD SWAP2 AND SWAP4 SWAP2 SWAP3 DUP5 SWAP3 SWAP2 PUSH1 0x0 DUP1 MLOAD PUSH1 0x20 PUSH2 0x6FF DUP4 CODECOPY DUP2 MLOAD SWAP2 MSTORE SWAP2 SWAP1 LOG4 POP POP JUMP JUMPDEST PUSH1 0x1 SLOAD PUSH1 0x1 PUSH1 0x1 PUSH1 0xA0 SHL SUB AND CALLER EQ PUSH2 0x369 JUMPI PUSH1 0x40 MLOAD PUSH3 0x461BCD PUSH1 0xE5 SHL DUP2 MSTORE PUSH1 0x4 ADD PUSH2 0x2C5 SWAP1 PUSH2 0x6C7 JUMP JUMPDEST PUSH12 0x50524943455F4F5241434C45 PUSH1 0xA0 SHL PUSH1 0x0 DUP2 DUP2 MSTORE PUSH1 0x20 DUP2 SWAP1 MSTORE PUSH32 0x5B6D9C8EE94C2286315B1D75C10AC421A036231EE7D51E8FA63BB940322543C1 DUP1 SLOAD PUSH1 0x1 PUSH1 0x1 PUSH1 0xA0 SHL SUB DUP6 DUP2 AND PUSH1 0x1 PUSH1 0x1 PUSH1 0xA0 SHL SUB NOT DUP4 AND DUP2 OR SWAP1 SWAP4 SSTORE PUSH1 0x40 MLOAD SWAP2 AND SWAP4 SWAP2 SWAP3 DUP5 SWAP3 SWAP2 PUSH1 0x0 DUP1 MLOAD PUSH1 0x20 PUSH2 0x6FF DUP4 CODECOPY DUP2 MLOAD SWAP2 MSTORE SWAP2 SWAP1 LOG4 POP POP JUMP JUMPDEST PUSH1 0x1 SLOAD PUSH1 0x1 PUSH1 0x1 PUSH1 0xA0 SHL SUB AND CALLER EQ PUSH2 0x40C JUMPI PUSH1 0x40 MLOAD PUSH3 0x461BCD PUSH1 0xE5 SHL DUP2 MSTORE PUSH1 0x4 ADD PUSH2 0x2C5 SWAP1 PUSH2 0x6C7 JUMP JUMPDEST PUSH1 0x0 DUP3 DUP2 MSTORE PUSH1 0x20 DUP2 SWAP1 MSTORE PUSH1 0x40 DUP1 DUP3 KECCAK256 DUP1 SLOAD PUSH1 0x1 PUSH1 0x1 PUSH1 0xA0 SHL SUB NOT DUP2 AND PUSH1 0x1 PUSH1 0x1 PUSH1 0xA0 SHL SUB DUP7 DUP2 AND SWAP2 DUP3 OR SWAP1 SWAP4 SSTORE SWAP3 MLOAD SWAP2 AND SWAP3 DUP4 SWAP2 DUP7 SWAP2 PUSH1 0x0 DUP1 MLOAD PUSH1 0x20 PUSH2 0x6FF DUP4 CODECOPY DUP2 MLOAD SWAP2 MSTORE SWAP2 LOG4 POP POP POP JUMP JUMPDEST PUSH1 0x1 SLOAD PUSH1 0x1 PUSH1 0x1 PUSH1 0xA0 SHL SUB AND CALLER EQ PUSH2 0x482 JUMPI PUSH1 0x40 MLOAD PUSH3 0x461BCD PUSH1 0xE5 SHL DUP2 MSTORE PUSH1 0x4 ADD PUSH2 0x2C5 SWAP1 PUSH2 0x6C7 JUMP JUMPDEST PUSH11 0x20A1A62FA6A0A720A3A2A9 PUSH1 0xA9 SHL PUSH1 0x0 DUP2 DUP2 MSTORE PUSH1 0x20 DUP2 SWAP1 MSTORE PUSH32 0x8E74BF0834BC26AA01630EB1C94BAEAB2AE4B7A018C966EB87F61DF46FEA6652 DUP1 SLOAD PUSH1 0x1 PUSH1 0x1 PUSH1 0xA0 SHL SUB DUP6 DUP2 AND PUSH1 0x1 PUSH1 0x1 PUSH1 0xA0 SHL SUB NOT DUP4 AND DUP2 OR SWAP1 SWAP4 SSTORE PUSH1 0x40 MLOAD SWAP2 AND SWAP4 SWAP2 SWAP3 DUP5 SWAP3 SWAP2 PUSH1 0x0 DUP1 MLOAD PUSH1 0x20 PUSH2 0x6FF DUP4 CODECOPY DUP2 MLOAD SWAP2 MSTORE SWAP2 SWAP1 LOG4 POP POP JUMP JUMPDEST PUSH1 0x1 SLOAD PUSH1 0x1 PUSH1 0x1 PUSH1 0xA0 SHL SUB AND CALLER EQ PUSH2 0x524 JUMPI PUSH1 0x40 MLOAD PUSH3 0x461BCD PUSH1 0xE5 SHL DUP2 MSTORE PUSH1 0x4 ADD PUSH2 0x2C5 SWAP1 PUSH2 0x6C7 JUMP JUMPDEST PUSH1 0x1 PUSH1 0x1 PUSH1 0xA0 SHL SUB DUP2 AND PUSH2 0x57A JUMPI PUSH1 0x40 MLOAD PUSH3 0x461BCD PUSH1 0xE5 SHL DUP2 MSTORE PUSH1 0x20 PUSH1 0x4 DUP3 ADD DUP2 SWAP1 MSTORE PUSH1 0x24 DUP3 ADD MSTORE PUSH32 0x4E6577206F776E65722063616E6E6F74206265207A65726F2061646472657373 PUSH1 0x44 DUP3 ADD MSTORE PUSH1 0x64 ADD PUSH2 0x2C5 JUMP JUMPDEST PUSH1 0x1 DUP1 SLOAD PUSH1 0x1 PUSH1 0x1 PUSH1 0xA0 SHL SUB NOT AND PUSH1 0x1 PUSH1 0x1 PUSH1 0xA0 SHL SUB SWAP3 SWAP1 SWAP3 AND SWAP2 SWAP1 SWAP2 OR SWAP1 SSTORE JUMP JUMPDEST PUSH1 0x1 SLOAD PUSH1 0x1 PUSH1 0x1 PUSH1 0xA0 SHL SUB AND CALLER EQ PUSH2 0x5C6 JUMPI PUSH1 0x40 MLOAD PUSH3 0x461BCD PUSH1 0xE5 SHL DUP2 MSTORE PUSH1 0x4 ADD PUSH2 0x2C5 SWAP1 PUSH2 0x6C7 JUMP JUMPDEST PUSH17 0x2827A7A62FA1A7A72324A3AAA920AA27A9 PUSH1 0x79 SHL PUSH1 0x0 DUP2 DUP2 MSTORE PUSH1 0x20 DUP2 SWAP1 MSTORE PUSH32 0xA106BFBC88DC3F2BAED8759B53B3CFF29293AA41F17B2B6CE9753FC1B63331B1 DUP1 SLOAD PUSH1 0x1 PUSH1 0x1 PUSH1 0xA0 SHL SUB DUP6 DUP2 AND PUSH1 0x1 PUSH1 0x1 PUSH1 0xA0 SHL SUB NOT DUP4 AND DUP2 OR SWAP1 SWAP4 SSTORE PUSH1 0x40 MLOAD SWAP2 AND SWAP4 SWAP2 SWAP3 DUP5 SWAP3 SWAP2 PUSH1 0x0 DUP1 MLOAD PUSH1 0x20 PUSH2 0x6FF DUP4 CODECOPY DUP2 MLOAD SWAP2 MSTORE SWAP2 SWAP1 LOG4 POP POP JUMP JUMPDEST PUSH1 0x0 PUSH1 0x20 DUP3 DUP5 SUB SLT ISZERO PUSH2 0x656 JUMPI PUSH1 0x0 DUP1 REVERT JUMPDEST POP CALLDATALOAD SWAP2 SWAP1 POP JUMP JUMPDEST DUP1 CALLDATALOAD PUSH1 0x1 PUSH1 0x1 PUSH1 0xA0 SHL SUB DUP2 AND DUP2 EQ PUSH2 0x674 JUMPI PUSH1 0x0 DUP1 REVERT JUMPDEST SWAP2 SWAP1 POP JUMP JUMPDEST PUSH1 0x0 PUSH1 0x20 DUP3 DUP5 SUB SLT ISZERO PUSH2 0x68B JUMPI PUSH1 0x0 DUP1 REVERT JUMPDEST PUSH2 0x694 DUP3 PUSH2 0x65D JUMP JUMPDEST SWAP4 SWAP3 POP POP POP JUMP JUMPDEST PUSH1 0x0 DUP1 PUSH1 0x40 DUP4 DUP6 SUB SLT ISZERO PUSH2 0x6AE JUMPI PUSH1 0x0 DUP1 REVERT JUMPDEST DUP3 CALLDATALOAD SWAP2 POP PUSH2 0x6BE PUSH1 0x20 DUP5 ADD PUSH2 0x65D JUMP JUMPDEST SWAP1 POP SWAP3 POP SWAP3 SWAP1 POP JUMP JUMPDEST PUSH1 0x20 DUP1 DUP3 MSTORE PUSH1 0x17 SWAP1 DUP3 ADD MSTORE PUSH32 0x43616C6C6572206973206E6F7420746865206F776E6572000000000000000000 PUSH1 0x40 DUP3 ADD MSTORE PUSH1 0x60 ADD SWAP1 JUMP INVALID SWAP15 CREATE 0xE8 0xC8 0xE5 0x27 NUMBER 0xBB CODESIZE 0xB8 EXTCODESIZE OR 0xD9 TIMESTAMP SWAP2 COINBASE 0xD4 SWAP5 0xB8 DIV SHR 0xA6 0xD6 AND 0xA6 0xC7 PUSH29 0xEBAE9CD8B7A26469706673582212209803CF6C931C607341D1AEDE6D19 SELFBALANCE 0xB4 MLOAD LOG3 GT CALLER 0xC7 STOP 0xE8 DUP14 0xCA 0x4B AND BLOBBASEFEE PUSH2 0x4230 0xCF PUSH5 0x736F6C6343 STOP ADDMOD SHR STOP CALLER "},"methodIdentifiers":{"getACLManager()":"707cd716","getAddress(bytes32)":"21f8a721","getOwner()":"893d20e8","getPool()":"026b1d5f","getPoolConfigurator()":"631adfca","getPriceOracle()":"fca513a8","setACLManager(address)":"ed301ca9","setAddress(bytes32,address)":"ca446dd9","setPool(address)":"4437152a","setPoolConfigurator(address)":"ff7ca69e","setPriceOracle(address)":"530e784f","transferOwnership(address)":"f2fde38b"}}}}}