{
  "_format": "hh-sol-artifact-1",
  "contractName": "AaveExpertWrapper",
  "sourceName": "contracts/gpuAaveContracts/AaveExpertWrapper.sol",
  "abi": [
    {
      "inputs": [
        {
          "internalType": "address",
          "name": "addressesProvider",
          "type": "address"
        }
      ],
      "stateMutability": "nonpayable",
      "type": "constructor"
    },
    {
      "inputs": [],
      "name": "AaveOperationFailed",
      "type": "error"
    },
    {
      "inputs": [],
      "name": "InvalidAddress",
      "type": "error"
    },
    {
      "inputs": [],
      "name": "InvalidAmount",
      "type": "error"
    },
    {
      "inputs": [],
      "name": "PoolNotInitialized",
      "type": "error"
    },
    {
      "anonymous": false,
      "inputs": [
        {
          "indexed": true,
          "internalType": "address",
          "name": "user",
          "type": "address"
        },
        {
          "indexed": true,
          "internalType": "address",
          "name": "asset",
          "type": "address"
        },
        {
          "indexed": false,
          "internalType": "uint256",
          "name": "amount",
          "type": "uint256"
        },
        {
          "indexed": false,
          "internalType": "uint256",
          "name": "interestRateMode",
          "type": "uint256"
        }
      ],
      "name": "Borrowed",
      "type": "event"
    },
    {
      "anonymous": false,
      "inputs": [
        {
          "indexed": false,
          "internalType": "address",
          "name": "pool",
          "type": "address"
        }
      ],
      "name": "PoolInitialized",
      "type": "event"
    },
    {
      "anonymous": false,
      "inputs": [
        {
          "indexed": true,
          "internalType": "address",
          "name": "user",
          "type": "address"
        },
        {
          "indexed": true,
          "internalType": "address",
          "name": "asset",
          "type": "address"
        },
        {
          "indexed": false,
          "internalType": "uint256",
          "name": "amount",
          "type": "uint256"
        },
        {
          "indexed": false,
          "internalType": "uint256",
          "name": "interestRateMode",
          "type": "uint256"
        }
      ],
      "name": "Repaid",
      "type": "event"
    },
    {
      "anonymous": false,
      "inputs": [
        {
          "indexed": true,
          "internalType": "address",
          "name": "user",
          "type": "address"
        },
        {
          "indexed": true,
          "internalType": "address",
          "name": "asset",
          "type": "address"
        },
        {
          "indexed": false,
          "internalType": "uint256",
          "name": "amount",
          "type": "uint256"
        }
      ],
      "name": "Supplied",
      "type": "event"
    },
    {
      "anonymous": false,
      "inputs": [
        {
          "indexed": true,
          "internalType": "address",
          "name": "user",
          "type": "address"
        },
        {
          "indexed": true,
          "internalType": "address",
          "name": "asset",
          "type": "address"
        },
        {
          "indexed": false,
          "internalType": "uint256",
          "name": "amount",
          "type": "uint256"
        }
      ],
      "name": "Withdrawn",
      "type": "event"
    },
    {
      "inputs": [],
      "name": "ADDRESSES_PROVIDER",
      "outputs": [
        {
          "internalType": "contract IPoolAddressesProvider",
          "name": "",
          "type": "address"
        }
      ],
      "stateMutability": "view",
      "type": "function"
    },
    {
      "inputs": [],
      "name": "REFERRAL_CODE",
      "outputs": [
        {
          "internalType": "uint16",
          "name": "",
          "type": "uint16"
        }
      ],
      "stateMutability": "view",
      "type": "function"
    },
    {
      "inputs": [
        {
          "internalType": "address",
          "name": "asset",
          "type": "address"
        },
        {
          "internalType": "uint256",
          "name": "amount",
          "type": "uint256"
        },
        {
          "internalType": "uint256",
          "name": "interestRateMode",
          "type": "uint256"
        },
        {
          "internalType": "address",
          "name": "onBehalfOf",
          "type": "address"
        }
      ],
      "name": "borrow",
      "outputs": [],
      "stateMutability": "nonpayable",
      "type": "function"
    },
    {
      "inputs": [
        {
          "internalType": "address",
          "name": "user",
          "type": "address"
        }
      ],
      "name": "getUserAccountData",
      "outputs": [
        {
          "internalType": "uint256",
          "name": "totalCollateralBase",
          "type": "uint256"
        },
        {
          "internalType": "uint256",
          "name": "totalDebtBase",
          "type": "uint256"
        },
        {
          "internalType": "uint256",
          "name": "availableBorrowsBase",
          "type": "uint256"
        },
        {
          "internalType": "uint256",
          "name": "currentLiquidationThreshold",
          "type": "uint256"
        },
        {
          "internalType": "uint256",
          "name": "ltv",
          "type": "uint256"
        },
        {
          "internalType": "uint256",
          "name": "healthFactor",
          "type": "uint256"
        }
      ],
      "stateMutability": "view",
      "type": "function"
    },
    {
      "inputs": [],
      "name": "initializePool",
      "outputs": [],
      "stateMutability": "nonpayable",
      "type": "function"
    },
    {
      "inputs": [],
      "name": "pool",
      "outputs": [
        {
          "internalType": "contract IPool",
          "name": "",
          "type": "address"
        }
      ],
      "stateMutability": "view",
      "type": "function"
    },
    {
      "inputs": [
        {
          "internalType": "address",
          "name": "asset",
          "type": "address"
        },
        {
          "internalType": "uint256",
          "name": "amount",
          "type": "uint256"
        },
        {
          "internalType": "uint256",
          "name": "interestRateMode",
          "type": "uint256"
        },
        {
          "internalType": "address",
          "name": "onBehalfOf",
          "type": "address"
        }
      ],
      "name": "repay",
      "outputs": [],
      "stateMutability": "nonpayable",
      "type": "function"
    },
    {
      "inputs": [
        {
          "internalType": "address",
          "name": "token",
          "type": "address"
        },
        {
          "internalType": "uint256",
          "name": "amount",
          "type": "uint256"
        }
      ],
      "name": "rescueToken",
      "outputs": [],
      "stateMutability": "nonpayable",
      "type": "function"
    },
    {
      "inputs": [
        {
          "internalType": "address",
          "name": "asset",
          "type": "address"
        },
        {
          "internalType": "uint256",
          "name": "amount",
          "type": "uint256"
        },
        {
          "internalType": "address",
          "name": "onBehalfOf",
          "type": "address"
        }
      ],
      "name": "supply",
      "outputs": [],
      "stateMutability": "nonpayable",
      "type": "function"
    },
    {
      "inputs": [
        {
          "internalType": "address",
          "name": "asset",
          "type": "address"
        },
        {
          "internalType": "uint256",
          "name": "amount",
          "type": "uint256"
        },
        {
          "internalType": "address",
          "name": "to",
          "type": "address"
        }
      ],
      "name": "withdraw",
      "outputs": [],
      "stateMutability": "nonpayable",
      "type": "function"
    },
    {
      "stateMutability": "payable",
      "type": "receive"
    }
  ],
  "bytecode": "0x60a0604052348015600f57600080fd5b506040516111ab3803806111ab833981016040819052602c916062565b6001600160a01b03811660525760405163e6c4247b60e01b815260040160405180910390fd5b6001600160a01b03166080526090565b600060208284031215607357600080fd5b81516001600160a01b0381168114608957600080fd5b9392505050565b6080516110fa6100b16000396000818160b3015261035501526110fa6000f3fe6080604052600436106100955760003560e01c80633583849a116100595780633583849a14610169578063573ade811461019157806369328dec146101b15780638b2a4df5146101d1578063bf92857c146101f157600080fd5b80630542975c146100a157806316f0115b146100f257806322e953ac14610112578063250e6de01461013457806333f3d6281461014957600080fd5b3661009c57005b600080fd5b3480156100ad57600080fd5b506100d57f000000000000000000000000000000000000000000000000000000000000000081565b6040516001600160a01b0390911681526020015b60405180910390f35b3480156100fe57600080fd5b506000546100d5906001600160a01b031681565b34801561011e57600080fd5b5061013261012d366004610eb3565b61023e565b005b34801561014057600080fd5b50610132610351565b34801561015557600080fd5b50610132610164366004610efd565b610452565b34801561017557600080fd5b5061017e600081565b60405161ffff90911681526020016100e9565b34801561019d57600080fd5b506101326101ac366004610eb3565b61046a565b3480156101bd57600080fd5b506101326101cc366004610f29565b610605565b3480156101dd57600080fd5b506101326101ec366004610f29565b610837565b3480156101fd57600080fd5b5061021161020c366004610f6b565b61099c565b604080519687526020870195909552938501929092526060840152608083015260a082015260c0016100e9565b6000546001600160a01b03166102675760405163486aa30760e01b815260040160405180910390fd5b6102718484610a52565b6000805460405163a415bcad60e01b81526001600160a01b03878116600483015260248201879052604482018690526064820193909352838316608482015291169063a415bcad9060a401600060405180830381600087803b1580156102d657600080fd5b505af19250505080156102e7575060015b6103045760405163522cc4ff60e11b815260040160405180910390fd5b60408051848152602081018490526001600160a01b0386169133917fc14e9e6b4d98a542b05a0f6b64acd5f4cbdb914be88432d87486b664e97071a7910160405180910390a35b50505050565b60007f00000000000000000000000000000000000000000000000000000000000000006001600160a01b031663026b1d5f6040518163ffffffff1660e01b8152600401602060405180830381865afa1580156103b1573d6000803e3d6000fd5b505050506040513d601f19601f820116820180604052508101906103d59190610f88565b90506001600160a01b0381166103fe5760405163e6c4247b60e01b815260040160405180910390fd5b600080546001600160a01b0319166001600160a01b0383169081179091556040519081527fcad8c9d32507393b6508ca4a888b81979919b477510585bde8488f153072d6f39060200160405180910390a150565b6104666001600160a01b0383163383610a9a565b5050565b6000546001600160a01b03166104935760405163486aa30760e01b815260040160405180910390fd5b61049d8484610a52565b60001983146104d5576104bb6001600160a01b038516333086610afd565b6000546104d5906001600160a01b03868116911685610b35565b60005460405163573ade8160e01b81526001600160a01b038681166004830152602482018690526044820185905283811660648301529091169063573ade81906084016020604051808303816000875af1925050508015610553575060408051601f3d908101601f1916820190925261055091810190610fa5565b60015b61059457600019831461057b576000805461057b916001600160a01b03878116921690610b35565b60405163522cc4ff60e11b815260040160405180910390fd5b60001984146105b857600080546105b8916001600160a01b03888116921690610b35565b60408051828152602081018590526001600160a01b0387169133917fe62a777dbd48d3912f68a1b9445813ee02bc3ac18b97dc129ca462cc77bb641b910160405180910390a35050505050565b6000546001600160a01b031661062e5760405163486aa30760e01b815260040160405180910390fd5b6106388383610a52565b6001600160a01b03811661065f5760405163e6c4247b60e01b815260040160405180910390fd5b6040516370a0823160e01b81526001600160a01b038281166004830152600091908516906370a0823190602401602060405180830381865afa1580156106a9573d6000803e3d6000fd5b505050506040513d601f19601f820116820180604052508101906106cd9190610fa5565b600054604051631a4ca37b60e21b81526001600160a01b0387811660048301526024820187905285811660448301529293509116906369328dec906064016020604051808303816000875af1925050508015610746575060408051601f3d908101601f1916820190925261074391810190610fa5565b60015b6107635760405163522cc4ff60e11b815260040160405180910390fd5b6040516370a0823160e01b81526001600160a01b038481166004830152600091908716906370a0823190602401602060405180830381865afa1580156107ad573d6000803e3d6000fd5b505050506040513d601f19601f820116820180604052508101906107d19190610fa5565b905060006107df8483610fbe565b9050866001600160a01b0316336001600160a01b03167fd1c19fbcd4551a5edfb66d43d2e337c04837afda3482b42bdf569a8fccdae5fb8360405161082691815260200190565b60405180910390a350505050505050565b6000546001600160a01b03166108605760405163486aa30760e01b815260040160405180910390fd5b61086a8383610a52565b61087f6001600160a01b038416333085610afd565b600054610899906001600160a01b03858116911684610b35565b6000805460405163617ba03760e01b81526001600160a01b038681166004830152602482018690528481166044830152606482019390935291169063617ba03790608401600060405180830381600087803b1580156108f757600080fd5b505af1925050508015610908575060015b61093b576109206001600160a01b0384163384610a9a565b6000805461057b916001600160a01b03868116921690610b35565b60008054610956916001600160a01b03868116921690610b35565b6040518281526001600160a01b0384169033907f523322d7afb07cee28d04498651096af062004e1f14315eff2e4a60290dfadda9060200160405180910390a35b505050565b60008054819081908190819081906001600160a01b03166109d05760405163486aa30760e01b815260040160405180910390fd5b600054604051632fe4a15f60e21b81526001600160a01b0389811660048301529091169063bf92857c9060240160c060405180830381865afa158015610a1a573d6000803e3d6000fd5b505050506040513d601f19601f82011682018060405250810190610a3e9190610fe5565b949c939b5091995097509550909350915050565b6001600160a01b038216610a795760405163e6c4247b60e01b815260040160405180910390fd5b806000036104665760405163162908e360e11b815260040160405180910390fd5b6040516001600160a01b03831660248201526044810182905261099790849063a9059cbb60e01b906064015b60408051601f198184030181529190526020810180516001600160e01b03166001600160e01b031990931692909217909152610c4f565b6040516001600160a01b038085166024830152831660448201526064810182905261034b9085906323b872dd60e01b90608401610ac6565b801580610baf5750604051636eb1769f60e11b81523060048201526001600160a01b03838116602483015284169063dd62ed3e90604401602060405180830381865afa158015610b89573d6000803e3d6000fd5b505050506040513d601f19601f82011682018060405250810190610bad9190610fa5565b155b610c1f5760405162461bcd60e51b815260206004820152603660248201527f5361666545524332303a20617070726f76652066726f6d206e6f6e2d7a65726f60448201527520746f206e6f6e2d7a65726f20616c6c6f77616e636560501b60648201526084015b60405180910390fd5b6040516001600160a01b03831660248201526044810182905261099790849063095ea7b360e01b90606401610ac6565b6000610ca4826040518060400160405280602081526020017f5361666545524332303a206c6f772d6c6576656c2063616c6c206661696c6564815250856001600160a01b0316610d219092919063ffffffff16565b8051909150156109975780806020019051810190610cc2919061102f565b6109975760405162461bcd60e51b815260206004820152602a60248201527f5361666545524332303a204552433230206f7065726174696f6e20646964206e6044820152691bdd081cdd58d8d9595960b21b6064820152608401610c16565b6060610d308484600085610d3a565b90505b9392505050565b606082471015610d9b5760405162461bcd60e51b815260206004820152602660248201527f416464726573733a20696e73756666696369656e742062616c616e636520666f6044820152651c8818d85b1b60d21b6064820152608401610c16565b843b610de95760405162461bcd60e51b815260206004820152601d60248201527f416464726573733a2063616c6c20746f206e6f6e2d636f6e74726163740000006044820152606401610c16565b600080866001600160a01b03168587604051610e059190611075565b60006040518083038185875af1925050503d8060008114610e42576040519150601f19603f3d011682016040523d82523d6000602084013e610e47565b606091505b5091509150610e57828286610e62565b979650505050505050565b60608315610e71575081610d33565b825115610e815782518084602001fd5b8160405162461bcd60e51b8152600401610c169190611091565b6001600160a01b0381168114610eb057600080fd5b50565b60008060008060808587031215610ec957600080fd5b8435610ed481610e9b565b935060208501359250604085013591506060850135610ef281610e9b565b939692955090935050565b60008060408385031215610f1057600080fd5b8235610f1b81610e9b565b946020939093013593505050565b600080600060608486031215610f3e57600080fd5b8335610f4981610e9b565b9250602084013591506040840135610f6081610e9b565b809150509250925092565b600060208284031215610f7d57600080fd5b8135610d3381610e9b565b600060208284031215610f9a57600080fd5b8151610d3381610e9b565b600060208284031215610fb757600080fd5b5051919050565b81810381811115610fdf57634e487b7160e01b600052601160045260246000fd5b92915050565b60008060008060008060c08789031215610ffe57600080fd5b50508451602086015160408701516060880151608089015160a090990151939a929950909790965094509092509050565b60006020828403121561104157600080fd5b81518015158114610d3357600080fd5b60005b8381101561106c578181015183820152602001611054565b50506000910152565b60008251611087818460208701611051565b9190910192915050565b60208152600082518060208401526110b0816040850160208701611051565b601f01601f1916919091016040019291505056fea2646970667358221220819e765f4a7d0f47e4a916bc7e6d3e184671be1a387dc5965c4162ff3aeac56864736f6c634300081c0033",
  "linkReferences": {},
  "deployedLinkReferences": {}
}